:060000000A128A11122809
:10000800FE00030E83120313BE000408BF000A0893
:10001800C0007F08C1000A128A112A280A128A1110
:1000280015280130DA00A03083138400BE300A128C
:100038008A11E7260A128A11423084005A300A12BD
:100048008A11E72683010A128A115B2E8C1E382832
:100058001C304E02031838284E08A03E84001A08A7
:1000680083138000CE0A8C120B1DCF28C80A0319EF
:10007800C90A143048064904031DAF28C801C9013C
:100088009F18AF281E08BC00BD01BD00BC01831627
:100098001E0883123C07C2000030031801303D07D8
:1000A800C300C401C31BC4034408C500FB004408C3
:1000B800FA004308F9004208F800B8210A128A1128
:1000C8007808A3007908A4007A08A500E130A00008
:1000D800FA30A1003E30A200E7210A128A11200856
:1000E800AF002108B0002208B10096220A128A1136
:1000F8002F08C2003008C3000030C31BFF30C40003
:10010800C5002030D500D6000A30F000F101F20118
:10011800F3014508F7004408F6004308F5004208D3
:10012800F400DA200A128A117008303ED7000A302B
:10013800F000F101F201F3014508F7004408F60068
:100148004308F5004208F4004F217008303ED800FB
:10015800D9010C139F1455300A128A15FA250A1270
:100168008A11C60A0319C70A023046064704031D46
:10017800CC28C601C701CC0A0319CD0A4B084D0685
:10018800031DC8284A084C06031DCC28CC01CD0104
:10019800383081000B114108FF0040088A003F08F1
:1001A80084003E0E8300FE0E7E0E0900F901F31F47
:1001B800EA28F009F109F209F309F00A0319F10A2A
:1001C8000319F20A0319F30AF901F90AF71FF928C2
:1001D800F409F509F609F709F40A0319F50A0319E8
:1001E800F60A0319F70A0130F906FA01FB01FC01C6
:1001F800FD01730872047104700403193829F801A9
:10020800F80AF31B0D290310F00DF10DF20DF30D93
:1002180004290310FA0DFB0DFC0DFD0D7308770280
:10022800031D202972087602031D20297108750212
:10023800031D202970087402031C32297008F40277
:100248007108031C710FF5027208031C720FF60285
:100258007308031C730FF7027A140310F30CF20CE3
:10026800F10CF00CF80B0D29790803194629FA0945
:10027800FB09FC09FD09FA0A0319FB0A0319FC0A20
:100288000319FD0A7D08F3007C08F2007B08F100E1
:100298007A08F0000800F901F71F5F29F409F50949
:1002A800F609F709F40A0319F50A0319F60A0319F6
:1002B800F70AF901F90AF31F6C29F009F109F209A3
:1002C800F309F00A0319F10A0319F20A0319F30AE8
:1002D80073087204710470040319A129F801F80A5B
:1002E800F31B7C290310F00DF10DF20DF30D7329AA
:1002F80073087702031D8A2972087602031D8A296A
:1003080071087502031D8A2970087402031C9B2951
:100318007008F4027108031C710FF5027208031CBF
:10032800720FF6027308031C730FF7020310F30C25
:10033800F20CF10CF00CF80B7C2979080319AF29A1
:10034800F409F509F609F709F40A0319F50A031976
:10035800F60A0319F70A7708F3007608F200750819
:10036800F1007408F00008008E30FD01FC00FB1F4E
:10037800CA29F809F909FA09FB09F80A0319F90A57
:100388000319FA0A0319FB0AFD01FD0AFF307B0570
:100398000319D5290310FB0CFA0CF90CF80CFC0A0C
:1003A800CA297808F0007908F1007A08F2007C0878
:1003B800F3007D08F40054227008F8007108F90071
:1003C8007208FA0008002008A6002108A7002208E1
:1003D800A8000310270D280DA9002908031DF829D6
:1003E800A001A101A20108002308A6002408A70073
:1003F8002508A8000310270D280DAE002E08031DA0
:10040800092AA001A101A20108002E087B3EA90724
:100418002208AE002508AE068030AE050730A117C9
:10042800A417A501AA01AB01AC01AD00201C232A29
:10043800F1220A128A110318250A031DAC070310BA
:10044800A20CA10CA00C0310A30DA40DA50DAD0BBF
:100458001A2A0930AD00201C382AF1220A128A1102
:100468000318250A031DAC070310A20CA10CA00C4D
:100478000310AC0CAB0CAA0CAD0B2F2A2A08F00009
:100488002B08F1002C08F2002908F3002E08F400CC
:1004980054227008A0007108A1007208A200080088
:1004A800730803195C2A720871047004031D652A15
:1004B800F001F101F2010800F30A0310F20CF10C4B
:1004C800F00CFE3072050319742A602AF30AF00A48
:1004D8000319F10A0319F20A0310F20CF10CF00CDB
:1004E800FF3072050319822A6A2A02307302031C3C
:1004F800842AF3030310F00DF10DF20DF11F792A90
:10050800731CF1130310F30C7308F700F601F501DF
:100518007508F0047608F1047708F2047408031DDE
:10052800F2170800FC220A128A110310340D350D47
:10053800BB003B08031DA52AAF01B001B101B20100
:100548000800FC220A128A1117300310B50CB40CEB
:10055800B30CFF3E031DA92A3308B600B017B1013A
:100568002F08B7003008B8003108B9008E30BA013A
:10057800BB02BB1FCC2A3B08803A8F3E031CA02A33
:100588000310BA0CB90CB80CB70CBB0FC42ADA2A82
:1005980018303B020318A02A3B080319DA2A031073
:1005A800B70DB80DB90DBA0DBB03D02A360803191B
:1005B800E82AB709B809B909BA09B70A0319B80A7C
:1005C8000319B90A0319BA0A3A08B2003908B1007E
:1005D8003808B0003708AF0008002308AA07240825
:1005E80003110318240A031DAB072508031108008B
:0E05F8002F08B3003008B4003108B500080029
:10080000FF1B0A2C83137F1883170008840A03191F
:10081000FF0A08007F087F398A000408840A031948
:10082000FF0A8200FF34FF34FF34FF34FF34FF340B
:10083000FF34FF34A034FF34FF34FF34FF34FF347F
:10084000F834F434FF34FF34EB348034EB34803448
:10085000EB34FF34DB34D5348034D534ED34FF341D
:10086000D834EA349434AB348D34FF34C934B634DC
:10087000A934DF34AF34FF34FF34FF34F834F434B8
:10088000FF34FF34FF34E334DD34BE34FF34FF344F
:10089000FF34BE34DD34E334FF34FF34D534E33485
:1008A0008034E334D534FF34F734F734C134F734CB
:1008B000F734FF34FF34A734C734FF34FF34FF3438
:1008C000F734F734F734F734F734FF34FF349F3418
:1008D0009F34FF34FF34FF34FF34C934C934FF344C
:1008E000FF34FF34C134AE34B634BA34C134FF34CB
:1008F000FF34BD348034BF34FF34FF348D34B6341C
:10090000B634B634B934FF34DD34BE34B634B6341C
:10091000C934FF34E734EB34ED348034EF34FF3442
:10092000D834BA34BA34BA34C634FF34C334B534E4
:10093000B634B634CF34FF34FE348E34F634FA3461
:10094000FC34FF34C934B634B634B634C934FF3459
:10095000F934B634B634D634E134FF34FF34C93414
:10096000C934FF34FF34FF34FF34A434C434FF34BB
:10097000FF34FF34F734EB34DD34BE34FF34FF345E
:10098000EB34EB34EB34EB34EB34FF34FF34BE3474
:10099000DD34EB34F734FF34FD34FE34AE34F6345A
:1009A000F934FF34CD34B6348E34BE34C134FF3420
:1009B0008334F534F634F5348334FF34BE34803474
:1009C000B634B634C934FF34C134BE34BE34BE3458
:1009D000DD34FF34BE348034BE34BE34C134FF3421
:1009E0008034B634B634B634BE34FF348034F63492
:1009F000F634FE34FE34FF34C134BE34B634B6347B
:100A0000C534FF348034F734F734F7348034FF349E
:100A1000FF34BE348034BE34FF34FF34DF34BF349F
:100A2000BE34C034FE34FF348034F734EB34DD346C
:100A3000BE34FF348034BF34BF34BF34FF34FF349E
:100A40008034FD34F334FD348034FF348034FD349D
:100A5000FB34F7348034FF34C134BE34BE34BE348A
:100A6000C134FF348034F634F634F634F934FF34CC
:100A7000C134BE34AE34DE34A134FF348034F634B5
:100A8000E634D634B934FF34D934B634B634B63457
:100A9000CD34FF34FE34FE348034FE34FE34FF3473
:100AA000C034BF34BF34BF34C034FF34E034DF342B
:100AB000BF34DF34E034FF34C034BF34CF34BF340C
:100AC000C034FF349C34EB34F734EB349C34FF34C3
:100AD000FC34FB348734FB34FC34FF349E34AE34B6
:100AE000B634BA34BC34FF34FF348034BE34BE3440
:100AF000FF34FF34FD34FB34F734EF34DF34FF349C
:100B0000FF34BE34BE348034FF34FF34FB34FD3454
:100B1000FE34FD34FB34FF347F347F347F347F3444
:100B20007F34FF34FF34FF34F834F434FF34FF34BF
:100B3000DF34AB34AB34AB34C734FF348034C73428
:100B4000BB34BB34C734FF34FF34C734BB34BB348D
:100B5000BB34FF34C734BB34BB34C7348034FF34B8
:100B6000C734AB34AB34AB34F734FF34F7348134AF
:100B7000F634F634FD34FF34F734AB34AB34AB34F5
:100B8000C334FF348034F734FB34FB348734FF3410
:100B9000FF34BB348234BF34FF34FF34DF34BF341E
:100BA000BB34C234FF34FF34FF348034EF34D734E5
:100BB000BB34FF34FF34BE348034BF34FF34FF34E1
:100BC0008334FB348734FB348734FF348334F73485
:100BD000FB34FB348734FF34C734BB34BB34BB3401
:100BE000C734FF348334EB34EB34EB34F734FF3465
:100BF000F734EB34EB34EB348334FF348334F734A1
:100C0000FB34FB34F734FF34B734AB34AB34AB34A0
:100C1000DB34FF34FF34FB34C034BB34BB34FF342B
:100C2000C334BF34BF34DF348334FF34E334DF34C0
:100C3000BF34DF34E334FF34C334BF34CF34BF3484
:100C4000C334FF34BB34D734EF34D734BB34FF3430
:100C5000F334AF34AF34AF34C334FF34BB349B34DC
:100C6000AB34B334BB34FF34FB34E134E034E1342F
:100C7000FB34FF34E334E334C134E334F734FF347A
:100C8000F734E334C134E334E334FF34EF34C334B2
:100C90008334C334EF34FF34FF34FF34FF34FF3484
:100CA000FF34FF34003400340034003400340034A6
:100CB0000D340A340034831603178901013088008B
:100CC000831203139F121F129F119F1D6B2E8312FD
:100CD00003131F156E2E831203131F111F149F136E
:100CE0001F1383169F179F129F1E7A2E83160313BE
:100CF0001F167D2E831603131F1283120C139F14CD
:100D000083168711071187100710831207108710A9
:100D1000071187118316811306143830831281005E
:100D2000831681128111011181100110FF3083128D
:100D30008F0038308E0090109012101210140C108A
:100D40008B170B178B1683168C160A128A11EF2637
:100D50000A128A110A128A11B7260A128A110A1275
:100D60008A11D8260A128A1183168113B62E86118B
:100D70000611861006108617861FC22E83160313CF
:100D80000617C52E831603130613061FCB2E8316D4
:100D900003138616CE2E831603138612861ED42EB8
:100DA00083160313061608008316031306120800A1
:100DB00007138717181562309900181283129817B5
:100DC0008316981618138312181618130800640057
:100DD0008001840A0406031900340406E82E081270
:0A0DE000881108118810081008009F
:101BF400FC00F0004F087E270A128A157008710451
:101C04000319062ECC01CD017C08CF007C089C274B
:101C14000A128A157108F6007008F5000630F700FC
:101C2400F801FB260A128A157608CB007508CA004B
:101C340000304B02243003194A020318242ECC012D
:101C4400CD01DA010130F001F00AF101F10ABA26FE
:101C54000A128A15831203135A08031D7C2E4C089A
:101C6400D300C1270A128A15031808005308A000DC
:101C7400A1014B082102031D412E4A08200203182A
:101C8400632EDE270A128A155A270A128A1571084A
:101C9400F8007008F70030270A128A15D2270A12B2
:101CA4008A1514270A128A15E9270A128A15FB26AF
:101CB4000A128A15AC270A128A1100240A128A15FC
:101CC400642EFF30F3270A128A15BA260A128A15DF
:101CD400C73083120313A0006F2EA00B6E2E722E3A
:101CE400FA270A128A15BA260A128A1583120313CE
:101CF400D30A332E4C08D300C1270A128A150318BD
:101D04000800DE270A128A155A270A128A15710852
:101D1400F8007008F70030270A128A15D2270A1231
:101D24008A1514270A128A15E9270A128A15FB262E
:101D34000A128A15AC270A128A1100240A128A157B
:101D4400F3270A128A15BA260A128A15C730831293
:101D54000313A000AD2EA00BAC2EB02EFA270A124E
:101D64008A15BA260A128A1583120313D30A7E2E01
:101D7400F400700BD62E7108FF3E83120313D400B7
:101D8400D41BD62E7408F200540ACA2E0310F20C87
:101D9400FF3E031DC82E7218D12E8814D22E88102F
:101DA40008100814D403C22E02307006031D080064
:101DB40083120313D4015408F200F301F21BF3035A
:101DC400710673040319F82E7408F200540AEC2EF9
:101DD4000310F20CFF3E031DEA2E7218F32E0816B0
:101DE400F42E081288118815D40ADD2E081108155E
:101DF4000800F901FA01751C052F7708F907031883
:101E0400FA0A7808FA070310F70DF80D0310F60C18
:101E1400F50C75087604031DFD2E7A08F600790882
:101E2400F5000800F2000830F300F4017208F10034
:101E340007300310F10CFF3E0310031D1C2F740D1B
:101E44007104F4000310F20D70087402031C2C2FAB
:101E54007008F402F30B182F74080800F901FA0152
:101E6400750876040319552FFB01FB0AF61B3E2F58
:101E74000310F50DF60D372F0310F90DFA0D760842
:101E84007802031D472F75087702031C512F75082C
:101E9400F7027608031CF803F80279140310F60C11
:101EA400F50CFB0B3E2F7A08F6007908F5000800C4
:101EB400700871040319792FF401F40AF11B662FD9
:101EC4000310F00DF10D5F2F71087302031D6C2FC9
:101ED40070087202031C752F7008F2027108031C4B
:101EE400F303F3020310F10CF00CF40B662F7308E8
:101EF400F1007208F0000800F500872F75088400CF
:101F040000080319962FF50AF00A70088400831359
:101F14000008F200750884000008F30072087302D8
:101F2400F40074080319802F7408F000F101F01B09
:101F3400F1030800F300F400740884000008031996
:101F4400A52FF40A9E2F73087402F000F101F01B10
:101F5400F10308001230A2008430A30075082207A0
:101F6400A40076080318760A2307A500200824078E
:101F7400840021080318210A2507FF0008004C08E3
:101F8400203EA0004D080318013EA1005308A20002
:101F9400A30121082302031D0800200822020800CF
:101FA40075087C07A000840083130008E03ED1007C
:101FB4000630F000530808000630F500F601530817
:101FC400F200F3014B08F1004A08F0000800D000C9
:101FD400A000A1015108F5000630F601F700F80150
:101FE4000800D2000230F0000830F1005208080066
:0C1FF4000030F001F00AF101F10A0800D1
:04400E00F2E3FFFFDB
:00000001FF
